:0400000007EF00F016
:0A0008005782BDED0AF024EF0BF063
:1010000000436F6D69656E7A61206C612072757442
:10101000696E6120646520696E74657272757063B3
:10102000696F6E2E2E2E0D0A005374617274696EF4
:1010300067206465766963652E2E2E200D0A0000F8
:1010400027C02BF028C02CF029C02DF02AC02EF08C
:10105000060ED8902B362C362D362E36E82E29EF5C
:1010600008F02B500008196E5A0E2C541A6E620E9E
:101070002D541B6E020E2E541C6E27C02FF028C05C
:1010800030F029C031F02AC032F0060ED8902F3649
:10109000303631363236E82E46EF08F02FC01DF0DC
:1010A00030C01EF031C01FF032C020F0B2EC08F0AA
:1010B00019C033F01AC034F03404D8A062EF08F03D
:1010C00064EF08F0A1EF08F027C02BF028C02CF047
:1010D00029C02DF02AC02EF0040ED8902B362C36C5
:1010E0002D362E36E82E6DEF08F02B500008196EC5
:1010F0005A0E2C541A6E620E2D541B6E020E2E5474
:101100001C6E27C02FF028C030F029C031F02AC053
:1011100032F0040ED8902F36303631363236E82E83
:101120008AEF08F02FC01DF030C01EF031C01FF054
:1011300032C020F0B2EC08F019C033F01AC034F01D
:10114000AC843404D8B0A7EF08F0A9EF08F0B1EFF1
:1011500008F033C0AFFFAC98AB8E948E948CAB8804
:10116000AC8A1200000E226E20BEBBEF08F0B9EF71
:1011700008F0C5EF08F0201E1F1E1E1E1D6C000E7D
:101180001E221F222022010E226E1CBECCEF08F070
:10119000CAEF08F0D6EF08F01C1E1B1E1A1E196CB1
:1011A000000E1A221B221C22010E221A000E236E90
:1011B000000E246E000E256E000E266E1D501E10B1
:1011C0001F102010D8B4E7EF08F0E9EF08F01FEF88
:1011D00009F0010E216EF3EF08F0D8901D361E368F
:1011E0001F362036212A20AEF8EF08F0FAEF08F07B
:1011F000EDEF08F0D89023362436253626361D50DC
:10120000195C1E501A581F501B5820501C58D8A04B
:101210000CEF09F00EEF09F017EF09F01D50195E01
:101220001E501A5A1F501B5A20501C5A2380D89007
:1012300020321F321E321D32212EFAEF08F02250CA
:10124000D8B425EF09F027EF09F02FEF09F0261E9B
:10125000251E241E236C000E24222522262223C0B4
:1012600019F024C01AF025C01BF026C01CF0120093
:10127000000E0C6E0ABE41EF09F03FEF09F047EF98
:1012800009F0096C0A1ED8B00A2A010E0C6E08BEBD
:101290004EEF09F04CEF09F054EF09F0076C081E0F
:1012A000D8B0082A010E0C1A000E0E6E000E0D6E3C
:1012B00009500A10D8B45FEF09F061EF09F089EF27
:1012C00009F0010E0B6E69EF09F0D89009360A3665
:1012D0000B2A0AAE6EEF09F070EF09F065EF09F026
:1012E000D8900D360E360950075C0A500858D8A021
:1012F0007CEF09F07EEF09F083EF09F00950075EFB
:101300000A50085A0D80D8900A3209320B2E70EF1D
:1013100009F00C50D8B48FEF09F091EF09F095EF78
:1013200009F00D6C0E1ED8B00E2A0DC007F00EC0CD
:1013300008F01200000E066E02BEA3EF09F0A1EF46
:1013400009F0A9EF09F0016C021ED8B0022A010EC3
:10135000066E04BEB0EF09F0AEEF09F0B4EF09F08D
:10136000036C041ED8B0042A03500410D8B4BBEF99
:1013700009F0BDEF09F0E1EF09F0010E056EC5EFD0
:1013800009F0D89003360436052A04AECAEF09F0F6
:10139000CCEF09F0C1EF09F00350015C0450025892
:1013A000D8A0D5EF09F0D7EF09F0DBEF09F0035033
:1013B000015E0450025AD89004320332052ECCEF5D
:1013C00009F00650D8B4E7EF09F0E9EF09F0EDEFC6
:1013D00009F0016C021ED8B0022A01C001F002C05F
:1013E00002F012000FC001F010C002F0000E046EF7
:1013F0000A0E036E9AEC09F00150300F536E000E86
:10140000046E640E036E0FC001F010C002F09AEC7F
:1014100009F001C007F002C008F0000E0A6E0A0EC3
:10142000096E38EC09F00750300F526E000E0A6E4C
:10143000640E096E0FC007F010C008F038EC09F018
:1014400007C001F008C002F0000E046E0A0E036E21
:101450009AEC09F00150300F516E0FC007F010C028
:1014600008F0030E0A6EE80E096E38EC09F007501A
:10147000300F506E1200000E1F6E000E1E6E5CEFDD
:101480000AF01E501A241C6E1F501B201D6E1CC01B
:10149000F6FF1DC0F7FF000EF86E0F0EF76403D0C5
:1014A0000800F55005D0F6CFE9FFF7CFEAFFEF507F
:1014B00051EC0BF01E4A1F2A1E501A241C6E1F509E
:1014C0001B201D6E1CC0F6FF1DC0F7FF000EF86E3E
:1014D0000F0EF76403D00800F55005D0F6CFE9FFF2
:1014E000F7CFEAFFEF500009D8A479EF0AF07BEFBD
:1014F0000AF041EF0AF01200000E076E000E066EB1
:101500009DEF0AF006500224046E07500320056E7A
:1015100004C0F6FF05C0F7FF000EF86E0F0EF7646B
:1015200003D00800F55005D0F6CFE9FFF7CFEAFF6A
:10153000EF505CEC0BF0064A072A06500224046EBA
:1015400007500320056E04C0F6FF05C0F7FF000E2C
:10155000F86E0F0EF76403D00800F55005D0F6CFF3
:10156000E9FFF7CFEAFFEF500009D8A4BAEF0AF07D
:10157000BCEF0AF082EF0AF012000600E9CF13F088
:10158000EACF14F0F6CF15F0F7CF16F0F8CF17F03A
:10159000F5CF18F0F29E72EC0BF0C282C2B2D3EF1C
:1015A0000AF0D5EF0AF0CEEF0AF0C350C4CF11F025
:1015B000126A11C012F0116A11100F6E1250106EE3
:1015C000F2EC09F0500E026E000E036E7CEC0AF095
:1015D000F294F28E18C0F5FF17C0F8FF16C0F7FF9F
:1015E00015C0F6FF14C0EAFF13C0E9FF57921100BF
:1015F00077EC0BF0800E276E250E286E000E296EFC
:10160000000E2A6E20EC08F0290E1A6E100E1B6ECA
:101610003BEC0AF067EC0BF06DEC0BF041EC0BF0DF
:1016200081EC0BF07FEC0BF0010E1A6E100E1B6EAE
:101630003BEC0AF0290E1A6E100E1B6E3BEC0AF002
:101640001AEF0BF007EF00F0F60EF66E160EF76EBF
:10165000000EF86E00EE50F010EE07F00900F5CF26
:10166000EEFFE550E150FAE100EE35F01B0EEE6AB8
:10167000E806FDE157905792000EF86E0001F8EF72
:101680000AF0C30EC216C198C19AC150F00B0809E6
:10169000C16EC08E380EC012C050F80B0209C06E69
:1016A0001200196EACA257EF0BF059EF0BF052EF8E
:1016B0000BF019C0ADFF1200016EACA262EF0BF08F
:1016C00064EF0BF05DEF0BF001C0ADFF1200D59C95
:1016D000D59AD596F80ED5161200B10ED66E3C0EE0
:1016E000D76E1200B10ED66E3C0ED76E12009280ED
:0D16F000948E949C1200000000000D0A0072
:0816FE00D58E1200C28012001B
:020000040020DA
:08000000FFFFFFFFFFFFFFFF00
:020000040030CA
:0E000000FF061F1EFF8184FF0FC00FE00F40A0
:00000001FF
