:020000040000FA
:040000009FEF13F06B
:1010000000436F6D69656E7A61206C612072757442
:10101000696E6120646520696E74657272757063B3
:10102000696F6E2E2E2E0D0A005374617274696EF4
:1010300067206465766963652E2E2E200D0A0000F8
:101040000450800B0D6E045004240F6E03AE2BEF82
:1010500008F02DEF08F02EEF08F00F800F50D8B4F5
:1010600034EF08F036EF08F04BEF08F00F28D8A463
:101070003CEF08F03EEF08F046EF08F0000E016E7E
:10108000000E026E000E036E000E046E038E000E44
:10109000046E53EF08F0000E016E000E026E000E9B
:1010A000036E000E046E0850800B0E6E0D500E186D
:1010B000D8B45DEF08F05FEF08F060EF08F00D8C3A
:1010C000085008240E6E07AE68EF08F06AEF08F0CB
:1010D0006BEF08F00E800E50D8B471EF08F073EF8C
:1010E00008F088EF08F00E28D8A479EF08F07BEF1D
:1010F00008F083EF08F0000E056E000E066E000E7D
:10110000076E000E086E078E000E086E90EF08F056
:10111000000E056E000E066E000E076E000E086EC5
:101120000F500E5CD8B097EF08F099EF08F0C0EFC1
:1011300008F00DAC9EEF08F0A0EF08F0A2EF08F069
:10114000800E0D1A0FC010F00EC00FF010C00EF080
:1011500001C010F005C001F010C005F002C010F091
:1011600006C002F010C006F003C010F007C003F084
:1011700010C007F004C010F008C004F010C008F060
:10118000000E106E0F500EC009F00A6A095E000EC4
:101190000A5A0ABED5EF08F00A5009E11A0E095C96
:1011A000D8A0D5EF08F0D7EF08F00EEF09F0015006
:1011B000021003100410D8A4E0EF08F0E3EF08F0E9
:1011C000010EE4EF08F0000E106E000E016E000E2E
:1011D000026E000E036E000E046E0EC00FF017EFCD
:1011E00009F010A0F6EF08F0F8EF08F0FEEF08F0B5
:1011F000D89010300109106E00EF09F0D89010322D
:1012000001A005EF09F007EF09F008EF09F0108ED3
:10121000043404320332023201320F2A0E500F5CC2
:10122000D8A015EF09F017EF09F0F1EF08F00DBCA9
:101230001CEF09F01EEF09F05EEF09F00F50D8A483
:1012400024EF09F026EF09F030EF09F0000E016EEF
:10125000000E026E000E036E000E046E7FEF0AF0A9
:10126000055001260650022207500322085004228E
:1012700004A03DEF09F03FEF09F0EBEF09F010A0FB
:1012800044EF09F046EF09F04CEF09F0D890103028
:101290000109106E4EEF09F0D890103201A053EF03
:1012A00009F055EF09F056EF09F0108E04340432BE
:1012B0000332023201320F2AEBEF09F00550015CD4
:1012C00006500258075003580450800A096E08500F
:1012D000800A0958D8B06FEF09F071EF09F09CEF60
:1012E00009F00150055C096E025006580A6E035061
:1012F00007580B6E045008580C6EFF0E0924016E3F
:10130000FF0E0A20026EFF0E0B20036EFF0E0C2054
:10131000046E800E0D1A106C1050D8A492EF09F0D4
:1013200094EF09F0A4EF09F0010E0126000E02224D
:1013300003220422A4EF09F00550015E0650025A70
:101340000750035A0850045A0150021003100410A9
:10135000D8A4ADEF09F0AFEF09F0E4EF09F01050B9
:10136000D8A4B5EF09F0B7EF09F0E4EF09F0000EEB
:10137000016E000E026E000E036E000E046E7FEF13
:101380000AF0D890013602360336043610AECBEFA1
:1013900009F0CDEF09F0CEEF09F0018010A0D3EFF6
:1013A00009F0D5EF09F0D9EF09F0D8801036DBEF5E
:1013B00009F0D89010360F50D8B4E1EF09F0E3EF00
:1013C00009F0E4EF09F00F0603AEE9EF09F0EBEFE7
:1013D00009F0C1EF09F0000E0E6E10AEF2EF09F049
:1013E000F4EF09F00CEF0AF010C009F07F0E0916B7
:1013F000D8B4FDEF09F0FFEF09F003EF0AF0010E9A
:101400000E6E0CEF0AF001A008EF0AF00AEF0AF0E6
:101410000CEF0AF0FFEF09F00E50D8B412EF0AF00B
:1014200014EF0AF03FEF0AF0010E0126000E02222F
:101430000322042204A01FEF0AF021EF0AF03FEF7D
:101440000AF001C009F002C00AF003C00BF004C0AA
:101450000CF00C340C320B320A32093209C001F0A4
:101460000AC002F00BC003F00CC004F00F28D8B47F
:101470003CEF0AF03EEF0AF03FEF0AF00F2A0F2888
:10148000D8B445EF0AF047EF0AF04FEF0AF00F50DB
:10149000D8A44DEF0AF04FEF0AF061EF0AF0000E0A
:1014A000016E000E026E000E036E000E046E0F50F1
:1014B000D8A45DEF0AF05FEF0AF061EF0AF0000ECA
:1014C0000D6E0FA066EF0AF068EF0AF06BEF0AF0FE
:1014D000038E6CEF0AF0039ED8900F30046E0DAEB1
:1014E00074EF0AF076EF0AF077EF0AF0048E01C08D
:1014F00001F002C002F003C003F004C004F01200C7
:101500000A50800B136E0A500A24196E09AE8BEF35
:101510000AF08DEF0AF08EEF0AF019801950D8B456
:1015200094EF0AF096EF0AF0A9EF0AF01928D8A470
:101530009CEF0AF09EEF0AF0A6EF0AF0000E076E8D
:10154000000E086E000E096E000E0A6E098EB1EFD5
:101550000AF0000E076E000E086E000E096E000EF7
:101560000A6E0E50800B131A0E500E24186E0DAE1C
:10157000BCEF0AF0BEEF0AF0BFEF0AF01880185077
:10158000D8B4C5EF0AF0C7EF0AF0DAEF0AF018286E
:10159000D8A4CDEF0AF0CFEF0AF0D7EF0AF0000E93
:1015A0000B6E000E0C6E000E0D6E000E0E6E0D8E8C
:1015B000E2EF0AF0000E0B6E000E0C6E000E0D6EC8
:1015C000000E0E6E1850D8B4E8EF0AF0EAEF0AF0F9
:1015D000F2EF0AF01950D8A4F0EF0AF0F2EF0AF097
:1015E000FCEF0AF0000E076E000E086E000E096E8A
:1015F000000E0A6E94EF0CF00D500702F3CF1EF0B0
:10160000F4CF1FF01E50146E156A166A176A1F5029
:101610001A6E1B6A1C6A1D6A0C500802F3CF1EF07A
:10162000F4CF1FF01E501426000E1522162217228A
:101630001F501A26000E1B221C221D220B500902CD
:10164000F3CF1EF0F4CF1FF01E501426000E15220B
:10165000162217221F501A26000E1B221C221D22A2
:1016600016C017F015C016F014C015F0146A0B5010
:101670000802F3CF1EF0F4CF1FF01E5014261F50A7
:101680001522000E1622000E17220C500702F3CF6F
:101690001EF0F4CF1FF01E5014261F501522000E0E
:1016A0001622000E172216C017F015C016F014C02F
:1016B00015F0146A0B500702F3CF1EF0F4CF1FF0A1
:1016C0001E5014261F501522000E1622000E17223F
:1016D0000D500802F3CF1EF0F4CF1FF01E501A2653
:1016E0001F501B22000E1C22000E1D220C5009024E
:1016F000F3CF1EF0F4CF1FF01E501A261F501B22EE
:10170000000E1C22000E1D220D500902F3CF1EF008
:10171000F4CF1FF01E500F6E1F50106E116A126A28
:1017200011C012F010C011F00FC010F00F6A0F506E
:101730001A2610501B2211501C2212501D2214C0B8
:101740000FF015C010F016C011F017C012F0190EEE
:10175000AFEF0BF0D8901232113210320F32E82E68
:10176000AAEF0BF00F501A2610501B2211501C220A
:1017700012501D2216C017F015C016F014C015F037
:10178000146A185019C00FF0106A0F26000E1022AC
:10179000820E0F241E6EFF0E10201F6EE5EF0BF061
:1017A000D8901A361B361C361D3617AEDAEF0BF002
:1017B000DCEF0BF0DDEF0BF01A80D8901436153605
:1017C000163617361E06D8A01F061CAEEAEF0BF021
:1017D000ECEF0BF0D0EF0BF0000E186E17AEF3EF3E
:1017E0000BF0F5EF0BF019EF0CF0FF0E14140F6E69
:1017F000FF0E1514106EFF0E1614116E7F0E1714C7
:10180000126E0F50101011101210D8B40AEF0CF015
:101810000CEF0CF010EF0CF0010E186E19EF0CF03D
:101820001AA015EF0CF017EF0CF019EF0CF00CEFFD
:101830000CF01850D8B41FEF0CF021EF0CF045EF6E
:101840000CF0010E1A26000E1B221C221D221DA0C8
:101850002CEF0CF02EEF0CF045EF0CF01AC00FF04F
:101860001BC010F01CC011F01DC012F01234123257
:10187000113210320F320FC01AF010C01BF011C01D
:101880001CF012C01DF01E4A1F2A1FBE50EF0CF0A4
:101890001F5008E11E28D8A050EF0CF052EF0CF0BA
:1018A0005CEF0CF0000E1A6E000E1B6E800E1C6EAC
:1018B0007F0E1D6E8AEF0CF01FBE69EF0CF01F50FB
:1018C00006E11E04D8B067EF0CF069EF0CF075EF7D
:1018D0000CF0000E1A6E000E1B6E000E1C6E000E39
:1018E0001D6E000E136E8AEF0CF01EC019F0FF0E75
:1018F0001A16FF0E1B167F0E1C16000E1D1619A0C1
:1019000084EF0CF086EF0CF087EF0CF01C8ED89073
:1019100019301D6E13501D121AC007F01BC008F0BD
:101920001CC009F01DC00AF01200000E466E040E25
:10193000456E500E266E010E276E670E286E000E45
:10194000296EB40E2A6E000E2B6EC5EC0EF0000E42
:10195000466E040E456EA00E266E010E276E7B0E9F
:10196000286E000E296EA40E2A6E000E2B6E96ECC9
:1019700010F0000E466E040E456EB40E116E000E91
:10198000126EA40E136E000E146EE40E156E000E91
:10199000166E7CEC11F067C057F068C058F069C053
:1019A00059F06AC05AF06BC05BF06CC05CF06DC05F
:1019B0005DF06EC05EF06FC05FF070C060F071C02F
:1019C00061F072C062F073C063F074C064F075C0FF
:1019D00065F076C066F0E4C067F0E5C068F0E6C088
:1019E00069F0E7C06AF0E8C06BF0E9C06CF0EAC0EB
:1019F0006DF0EBC06EF0ECC06FF0EDC070F0EEC0BB
:101A000071F0EFC072F0F0C073F0F1C074F0F2C08A
:101A100075F0F3C076F07BC080F07CC081F07DC0B3
:101A200082F07EC083F057C084F058C085F059C062
:101A300086F05AC087F05BC088F05CC089F05DC05A
:101A40008AF05EC08BF05FC08CF060C08DF061C02A
:101A50008EF062C08FF063C090F064C091F065C0FA
:101A600092F066C093F0000E466E040E456E100EA6
:101A7000266E010E276E470E286E000E296E940EFC
:101A80002A6E000E2B6EC5EC0EF0000E466E040E94
:101A9000456E800E266E020E276E800E286E000E9A
:101AA000296EC00E2A6E010E2B6EAFEC0FF0000EE9
:101AB000466E040E456E940E116E000E126EC00E30
:101AC000136E010E146ED40E156E000E166E7CECA5
:101AD00011F047C0C4F048C0C5F049C0C6F04AC0C4
:101AE000C7F04BC0C8F04CC0C9F04DC0CAF04EC0E2
:101AF000CBF04FC0CCF050C0CDF051C0CEF052C0B2
:101B0000CFF053C0D0F054C0D1F055C0D2F056C081
:101B1000D3F0D4C047F0D5C048F0D6C049F0D7C004
:101B20004AF0D8C04BF0D9C04CF0DAC04DF0DBC061
:101B30004EF0DCC04FF0DDC050F0DEC051F0DFC031
:101B400052F0E0C053F0E1C054F0E2C055F0E3C001
:101B500056F0000E466E010E456E900E266E010E7A
:101B6000276EC40E286E000E296E770E2A6E000EA8
:101B70002B6EC5EC0EF0000E466E010E456EF80E93
:101B8000116E000E126E770E136E000E146E7B0E29
:101B9000156E000E166E7CEC11F01200570E126ED0
:101BA000000E136EC40E146E000E156E030EEEECD6
:101BB00014F0000E036E000E026E12C0D9FF13C0A7
:101BC000DAFFDF50EEEC14F0124A132A024A032A1D
:101BD000035009E1040E025CD8A0F1EF0DF0F3EF21
:101BE0000DF0DDEF0DF05B0E126E000E136E000EA9
:101BF000056E000E046E12C0D9FF13C0DAFFDF506D
:101C0000EEEC14F0124A132A044A052A055009E1A1
:101C1000040E045CD8A00FEF0EF011EF0EF0FBEFF6
:101C20000DF05F0E126E000E136E000E076E000EAA
:101C3000066E12C0D9FF13C0DAFFDF50EEEC14F0CD
:101C4000124A132A064A072A075009E1040E065CC5
:101C5000D8A02DEF0EF02FEF0EF019EF0EF0630E5F
:101C6000126E000E136E000E096E000E086E12C08A
:101C7000D9FF13C0DAFFDF50EEEC14F0124A132A3A
:101C8000084A092A095009E1040E085CD8A04BEF64
:101C90000EF04DEF0EF037EF0EF0000E0B6E000E53
:101CA0000A6E14C0D9FF15C0DAFFDF50EEEC14F055
:101CB000144A152A0A4A0B2A0B5009E1040E0A5C41
:101CC000D8A065EF0EF067EF0EF051EF0EF0C80EE2
:101CD000146E000E156E000E0D6E000E0C6E14C00C
:101CE000D9FF15C0DAFFDF50EEEC14F0144A152AC4
:101CF0000C4A0D2A0D5009E1040E0C5CD8A083EFAC
:101D00000EF085EF0EF06FEF0EF0CC0E146E000E9D
:101D1000156E000E0F6E000E0E6E14C0D9FF15C0AA
:101D2000DAFFDF50EEEC14F0144A152A0E4A0F2A9F
:101D30000F5009E1040E0E5CD8A0A1EF0EF0A3EF46
:101D40000EF08DEF0EF0D00E146E000E156E000E1C
:101D5000116E000E106E14C0D9FF15C0DAFFDF50EF
:101D6000EEEC14F0144A152A104A112A115009E118
:101D7000040E105CD8A0BFEF0EF0C1EF0EF0ABEF79
:101D80000EF0FC0EEEEC14F01200000E3B6E000E96
:101D90003A6E000E3D6E000E3C6E000E3B6E000E65
:101DA0003A6E9FEF0FF0000E3F6E000E3E6E3AC08F
:101DB0002CF03BC02DF0D8902C362D36D8902C36F8
:101DC0002D362AC02EF02BC02FF02C502E262D5051
:101DD0002F22D8903E34D96E3F34DA6ED890D9365F
:101DE000DA362E50D9262F50DA22000EDE6E000E83
:101DF000DE6E000EDE6E000EDD6E000E3D6E000E1D
:101E00003C6E3EC02CF03FC02DF0D8902C362D36C5
:101E1000D8902C362D363AC02EF03BC02FF0D890FB
:101E20002E362F36D8902E362F362AC030F02BC0C3
:101E300031F02E5030262F5031222C503024206E7D
:101E40002D503120216E3CC032F03DC033F0D8908F
:101E500032363336D8903236333628C034F029C083
:101E600035F03250342633503522D8903E34D96E76
:101E70003F34DA6ED890D936DA363450D926355018
:101E8000DA22DECF0BF0DECF0CF0DECF0DF0DECFAE
:101E90000EF03AC036F03BC037F0363A373AF00E23
:101EA000371636500F0B3712F00E361626C038F0A4
:101EB00027C039F03650382637503922D8903C3474
:101EC000D96E3D34DA6ED890D936DA363850D92604
:101ED0003950DA22DECF07F0DECF08F0DECF09F08E
:101EE000DECF0AF080EC0AF007C022F008C023F031
:101EF00009C024F00AC025F0B8EC14F03C4A3D2A91
:101F00003DBE8CEF0FF03D5009E1040E3C5CD8A0C3
:101F10008CEF0FF08EEF0FF001EF0FF03E4A3F2AEB
:101F20003FBE9BEF0FF03F5008E13E04D8A09BEF6F
:101F30000FF09DEF0FF0D7EF0EF03A4A3B2A4550D5
:101F40003A5C3B50800A2C6E4650800A2C58D8A030
:101F5000ACEF0FF0AEEF0FF0D3EF0EF01200000E6B
:101F6000396E000E386E000E3B6E000E3A6E000E9B
:101F7000396E000E386E86EF10F0000E3D6E000ECA
:101F80003C6E38C02CF039C02DF0D8902C362D3650
:101F9000D8902C362D362AC02EF02BC02FF02C5086
:101FA0002E262D502F22D8903C34D96E3D34DA6E37
:101FB000D890D936DA362E50D9262F50DA22000E94
:101FC000DE6E000EDE6E000EDE6E000EDD6E000EAA
:101FD0003B6E000E3A6E3CC02CF03DC02DF0D89008
:101FE0002C362D36D8902C362D3638C02EF039C0F0
:101FF0002FF0D8902E362F36D8902E362F362AC076
:1020000030F02BC031F02E5030262F5031222C5082
:102010003024206E2D503120216E3AC032F03BC06A
:1020200033F0D89032363336D8903236333628C033
:1020300034F029C035F03250342633503522D89050
:102040003C34D96E3D34DA6ED890D936DA36345015
:10205000D9263550DA22DECF0BF0DECF0CF0DECF02
:102060000DF0DECF0EF038C001F039C002F0000EE6
:10207000046E140E036EDBEC14F026C036F027C09D
:1020800037F00150362602503722D8903A34D96EB4
:102090003B34DA6ED890D936DA363650D9263750F6
:1020A000DA22DECF07F0DECF08F0DECF09F0DECF98
:1020B0000AF080EC0AF007C022F008C023F009C043
:1020C00024F00AC025F0B8EC14F03A4A3B2A3BBE93
:1020D00073EF10F03B5009E1050E3A5CD8A073EFA6
:1020E00010F075EF10F0EBEF0FF03C4A3D2A3DBECB
:1020F00082EF10F03D5008E13C04D8A082EF10F0D0
:1021000084EF10F0C1EF0FF0384A392A4550385C9F
:102110003950800A2C6E4650800A2C58D8A093EF74
:1021200010F095EF10F0BDEF0FF01200000E3B6EB7
:10213000000E3A6E000E3D6E000E3C6E000E3B6EC1
:10214000000E3A6E6CEF11F0000E3F6E000E3E6E08
:102150003AC02CF03BC02DF0D8902C362D36D890BC
:102160002C362D362AC02EF02BC02FF02C502E26C8
:102170002D502F22D8903E34D96E3F34DA6ED8904D
:10218000D936DA362E50D9262F50DA22000EDE6EDE
:10219000000EDE6E000EDE6E000EDD6E000E3D6E79
:1021A000000E3C6E3EC02CF03FC02DF0D8902C3677
:1021B0002D36D8902C362D363AC02EF03BC02FF05D
:1021C000D8902E362F36D8902E362F362AC030F0A3
:1021D0002BC031F02E5030262F5031222C5030247D
:1021E000206E2D503120216E3CC032F03DC033F0C6
:1021F000D89032363336D8903236333628C034F061
:1022000029C035F03250342633503522D8903E3430
:10221000D96E3F34DA6ED890D936DA363450D926B2
:102220003550DA22DECF0BF0DECF0CF0DECF0DF032
:10223000DECF0EF03AC036F03BC037F0D8903636DD
:102240003736D8903636373626C038F027C039F0C2
:102250003650382637503922D8903C34D96E3D3428
:10226000DA6ED890D936DA363850D9263950DA2293
:10227000DECF07F0DECF08F0DECF09F0DECF0AF0C8
:1022800080EC0AF007C022F008C023F009C024F057
:102290000AC025F0B8EC14F03C4A3D2A3DBE59EF87
:1022A00011F03D5008E13C04D8A059EF11F05BEF6C
:1022B00011F0D2EF10F03E4A3F2A3FBE68EF11F016
:1022C0003F5008E13E04D8A068EF11F06AEF11F02A
:1022D000A8EF10F03A4A3B2A45503A5C3B50800A3E
:1022E0002C6E4650800A2C58D8A079EF11F07BEF65
:1022F00011F0A4EF10F01200000E246E000E236EF9
:10230000000E246E000E236E0FEF12F0000E266EEC
:10231000000E256E23C017F024C018F0D890173691
:102320001836D8901736183611C019F012C01AF0A6
:102330001750192618501A22D8902534D96E2634F1
:10234000DA6ED890D936DA361950D9261A50DA22F0
:10235000DECF01F0DECF02F0DECF03F0DECF04F0FF
:1023600023C01BF024C01CF0D8901B361C36D8901C
:102370001B361C3613C01DF014C01EF01B501D264A
:102380001C501E22D8902534D96E2634DA6ED8908F
:10239000D936DA361D50D9261E50DA22DECF05F0A6
:1023A000DECF06F0DECF07F0DECF08F020EC08F03D
:1023B00023C01FF024C020F0D8901F362036D890BC
:1023C0001F36203615C021F016C022F01F502126DE
:1023D00020502222D8902534D96E2634DA6ED89037
:1023E000D936DA362150D9262250DA2201C0DEFF52
:1023F00002C0DEFF03C0DEFF04C0DEFF254A262A3E
:1024000026BE0BEF12F0265008E12504D8A00BEFF2
:1024100012F00DEF12F08AEF11F0234A242A4550F2
:10242000235C2450800A176E4650800A1758D8A0A3
:102430001CEF12F01EEF12F086EF11F012000FC029
:1024400013F010C014F011C015F012C016F0060EF3
:10245000D8901336143615361636E82E28EF12F0BB
:1024600013500008016E240E1454026EF40E15541D
:10247000036E000E1654046E0FC017F010C018F053
:1024800011C019F012C01AF0060ED890173618367F
:1024900019361A36E82E45EF12F017C005F018C0AD
:1024A00006F019C007F01AC008F0B1EC12F001C034
:1024B0001BF002C01CF01C04D8A061EF12F063EF07
:1024C00012F0A0EF12F00FC013F010C014F011C002
:1024D00015F012C016F0040ED890133614361536C7
:1024E0001636E82E6CEF12F013500008016E240E21
:1024F0001454026EF40E1554036E000E1654046E3E
:102500000FC017F010C018F011C019F012C01AF067
:10251000040ED8901736183619361A36E82E89EF79
:1025200012F017C005F018C006F019C007F01AC065
:1025300008F0B1EC12F001C01BF002C01CF0AC843A
:102540001C04D8B0A6EF12F0A8EF12F0B0EF12F012
:102550001BC0AFFFAC98AB8E948E948CAB88AC8ACA
:102560001200000E0A6E08BEBAEF12F0B8EF12F0B9
:10257000C4EF12F0081E071E061E056C000E062290
:1025800007220822010E0A6E04BECBEF12F0C9EF3B
:1025900012F0D5EF12F0041E031E021E016C000E95
:1025A000022203220422010E0A1A000E0B6E000EF4
:1025B0000C6E000E0D6E000E0E6E0550061007100C
:1025C0000810D8B4E6EF12F0E8EF12F01EEF13F0A7
:1025D000010E096EF2EF12F0D89005360636073676
:1025E0000836092A08AEF7EF12F0F9EF12F0ECEF17
:1025F00012F0D8900B360C360D360E360550015CB5
:10260000065002580750035808500458D8A00BEF42
:1026100013F00DEF13F016EF13F00550015E0650A6
:10262000025A0750035A0850045A0B80D8900832B7
:10263000073206320532092EF9EF12F00A50D8B4EB
:1026400024EF13F026EF13F02EEF13F00E1E0D1EE5
:102650000C1E0B6C000E0C220D220E220BC001F082
:102660000CC002F00DC003F00EC004F01200000018
:10267000803F00000000000000000000000000009B
:1026800000000000803F000000000000000000008B
:102690000000000000000000803F0000000000007B
:1026A000000000000000000000000000803F00006B
:1026B000803F00000000000000000000000000005B
:1026C00000000000803F000000000000000000004B
:1026D0000000000000000000803F0000000000003B
:1026E000000000000000000000000000803F0726FE
:1026F0001B3A63012A3DAEEBC9BD8011643A00006C
:1027000000008767333C2A22D63DDF2F243DBBDC07
:10271000833C000000005795FB3900000000454451
:1027200049B8BBB2663D1B6AE3BCB1B7DE3C0000F2
:1027300000008E2C32BB2788613E4FC8583D6E0E7C
:10274000F66E260EF76E000EF86E02EE00F010EE3A
:10275000D0F00900F5CFEEFFE550E150FAE1FC0EB4
:10276000F66E270EF76E000EF86E01EE00F010EE1A
:10277000B0F00900F5CFEEFFE550E150FAE1F20EBE
:10278000F66E290EF76E000EF86E00EEF4F010EE05
:1027900008F00900F5CFEEFFE550E150FAE1060E32
:1027A000F66E2A0EF76E000EF86E00EE7BF010EE5D
:1027B00004F00900F5CFEEFFE550E150FAE103EE39
:1027C00000F0500EEE6AE806FDE101EEB0F0200EDA
:1027D000EE6AE806FDE100EE80F0740EEE6AE806AF
:1027E000FDE100EE43F0380EEE6AE806FDE1000E72
:1027F000F86E100EF76E000156EF14F077D352C04A
:102800001BB829C0FFC189418DAA2940EA5F753FE5
:102810002A22D63D00000000000000002A22D6BD7A
:10282000EA5F753F000000000000000000000000AB
:1028300000000000906C723FC7340A3D00000000A9
:1028400000000000C7340ABD906C723F0000803F5A
:10285000F13EC93B3C98533885EBDD330000000066
:10286000D1B67F3FC77E863C3C98533800000000BD
:1028700024F10FB74B13803FD865C93B000000001F
:1028800099FC36BB9839443E4B13803F77D3524076
:102890001BB82940FFC189C18DAA29C04CEE0F3851
:1028A0005FF5363C6DEDB338BFBBE43C050E426EC0
:1028B000780E416EFDEC14F0800E0F6E250E106E3A
:1028C000000E116E000E126E1FEC12F0290E026E39
:1028D000100E036E8DEC14F0010E026E100E036EDE
:1028E0008DEC14F000EC15F07CEF14F095EC0CF08E
:1028F000CEEC0DF0434A442A4150435C4450800AD8
:10290000406E4250800A4058D8A089EF14F08BEFF7
:1029100014F076EF14F000EF00F0000E076E000EDA
:10292000066EA3EF14F006500224046E0750032035
:10293000056E04C0F6FF05C0F7FF0800F550EEEC89
:1029400014F0064A072A06500224046E075003209A
:10295000056E04C0F6FF05C0F7FF0800F55000093A
:10296000D8A4B5EF14F0B7EF14F093EF14F0120001
:1029700020C0D9FF21C0DAFFDECF01F0DECF02F0A8
:10298000DECF03F0DECF04F022C005F023C006F056
:1029900024C007F025C008F020EC08F020C0D9FFC3
:1029A00021C0DAFF01C0DEFF02C0DEFF03C0DEFF90
:1029B00004C0DEFF120001500302F3CF05F0F4CF94
:1029C00006F001500402F350062602500302F350B1
:1029D000062605C001F006C002F01200016EACA28E
:1029E000F4EF14F0F6EF14F0EFEF14F001C0ADFFC8
:1029F00012002CA928BF2CA928BF948E949C1200E9
:0A2A0000F29EF29C12002CA928BFE0
:020000040020DA
:08000000FFFFFFFFFFFFFFFF00
:020000040030CA
:0E000000FF021F1EFF8184FF0FC00FE00F40A4
:00000001FF
